{
  "_format": "hh-sol-artifact-1",
  "contractName": "Hyperswap",
  "sourceName": "contracts/Hyperswap.sol",
  "abi": [
    {
      "inputs": [
        {
          "internalType": "uint32",
          "name": "localDomain",
          "type": "uint32"
        }
      ],
      "stateMutability": "nonpayable",
      "type": "constructor"
    },
    {
      "inputs": [
        {
          "internalType": "uint32",
          "name": "_destinationDomain",
          "type": "uint32"
        },
        {
          "internalType": "address",
          "name": "tokenIn",
          "type": "address"
        },
        {
          "internalType": "uint256",
          "name": "amountIn",
          "type": "uint256"
        }
      ],
      "name": "ApproveSpecifyToken",
      "outputs": [],
      "stateMutability": "nonpayable",
      "type": "function"
    },
    {
      "inputs": [
        {
          "internalType": "uint32",
          "name": "_destinationDomain",
          "type": "uint32"
        },
        {
          "internalType": "address[]",
          "name": "path",
          "type": "address[]"
        },
        {
          "internalType": "uint24",
          "name": "fee",
          "type": "uint24"
        },
        {
          "internalType": "uint256",
          "name": "amountIn",
          "type": "uint256"
        },
        {
          "internalType": "uint256",
          "name": "amountOutMin",
          "type": "uint256"
        }
      ],
      "name": "HyperlaneSwap",
      "outputs": [],
      "stateMutability": "payable",
      "type": "function"
    },
    {
      "inputs": [
        {
          "internalType": "uint32",
          "name": "localDomain",
          "type": "uint32"
        }
      ],
      "name": "InterChainAccount",
      "outputs": [
        {
          "internalType": "address",
          "name": "",
          "type": "address"
        }
      ],
      "stateMutability": "view",
      "type": "function"
    },
    {
      "inputs": [],
      "name": "_localDomain",
      "outputs": [
        {
          "internalType": "uint32",
          "name": "",
          "type": "uint32"
        }
      ],
      "stateMutability": "view",
      "type": "function"
    }
  ],
  "bytecode": "0x608060405234801561001057600080fd5b50604051610eab380380610eab83398181016040528101906100329190610099565b806000806101000a81548163ffffffff021916908363ffffffff160217905550506100c6565b600080fd5b600063ffffffff82169050919050565b6100768161005d565b811461008157600080fd5b50565b6000815190506100938161006d565b92915050565b6000602082840312156100af576100ae610058565b5b60006100bd84828501610084565b91505092915050565b610dd6806100d56000396000f3fe60806040526004361061003f5760003560e01c806358169369146100445780636bb476091461006f578063d10359b81461008b578063eac91114146100c8575b600080fd5b34801561005057600080fd5b506100596100f1565b6040516100669190610662565b60405180910390f35b61008960048036038101906100849190610789565b610105565b005b34801561009757600080fd5b506100b260048036038101906100ad9190610823565b6103e0565b6040516100bf9190610891565b60405180910390f35b3480156100d457600080fd5b506100ef60048036038101906100ea91906108d8565b61047e565b005b60008054906101000a900463ffffffff1681565b600073e592427a0aece92de3edee1f18e0157c0586156490506000604051806101000160405280888860008181106101405761013f61092b565b5b9050602002016020810190610155919061095a565b73ffffffffffffffffffffffffffffffffffffffff168152602001888860018181106101845761018361092b565b5b9050602002016020810190610199919061095a565b73ffffffffffffffffffffffffffffffffffffffff1681526020018662ffffff1681526020016101d860008054906101000a900463ffffffff166103e0565b73ffffffffffffffffffffffffffffffffffffffff1681526020016102584261020191906109b6565b8152602001858152602001848152602001600073ffffffffffffffffffffffffffffffffffffffff1681525090506000600167ffffffffffffffff81111561024c5761024b610a0c565b5b60405190808252806020026020018201604052801561028557816020015b610272610613565b81526020019060019003908161026a5790505b509050604051806040016040528073e592427a0aece92de3edee1f18e0157c0586156473ffffffffffffffffffffffffffffffffffffffff1681526020018473ffffffffffffffffffffffffffffffffffffffff1663414bf389856040516024016102f09190610b19565b604051602081830303815290604052915060e01b6020820180517bffffffffffffffffffffffffffffffffffffffffffffffffffffffff8381831617835250505050815250816000815181106103495761034861092b565b5b60200260200101819052507328db114018576cf6c9a523c17903455a161d18c473ffffffffffffffffffffffffffffffffffffffff1663169a1d728a836040518363ffffffff1660e01b81526004016103a3929190610ccd565b600060405180830381600087803b1580156103bd57600080fd5b505af11580156103d1573d6000803e3d6000fd5b50505050505050505050505050565b6000807328db114018576cf6c9a523c17903455a161d18c473ffffffffffffffffffffffffffffffffffffffff1663f6aa164084306040518363ffffffff1660e01b8152600401610432929190610cfd565b602060405180830381865afa15801561044f573d6000803e3d6000fd5b505050506040513d601f19601f820116820180604052508101906104739190610d3b565b905080915050919050565b6000600167ffffffffffffffff81111561049b5761049a610a0c565b5b6040519080825280602002602001820160405280156104d457816020015b6104c1610613565b8152602001906001900390816104b95790505b50905060405180604001604052808473ffffffffffffffffffffffffffffffffffffffff16815260200173e592427a0aece92de3edee1f18e0157c0586156484604051602401610525929190610d77565b60405160208183030381529060405263095ea7b360e01b6020820180517bffffffffffffffffffffffffffffffffffffffffffffffffffffffff8381831617835250505050815250816000815181106105815761058061092b565b5b60200260200101819052507328db114018576cf6c9a523c17903455a161d18c473ffffffffffffffffffffffffffffffffffffffff1663169a1d7285836040518363ffffffff1660e01b81526004016105db929190610ccd565b600060405180830381600087803b1580156105f557600080fd5b505af1158015610609573d6000803e3d6000fd5b5050505050505050565b6040518060400160405280600073ffffffffffffffffffffffffffffffffffffffff168152602001606081525090565b600063ffffffff82169050919050565b61065c81610643565b82525050565b60006020820190506106776000830184610653565b92915050565b600080fd5b600080fd5b61069081610643565b811461069b57600080fd5b50565b6000813590506106ad81610687565b92915050565b600080fd5b600080fd5b600080fd5b60008083601f8401126106d8576106d76106b3565b5b8235905067ffffffffffffffff8111156106f5576106f46106b8565b5b602083019150836020820283011115610711576107106106bd565b5b9250929050565b600062ffffff82169050919050565b61073081610718565b811461073b57600080fd5b50565b60008135905061074d81610727565b92915050565b6000819050919050565b61076681610753565b811461077157600080fd5b50565b6000813590506107838161075d565b92915050565b60008060008060008060a087890312156107a6576107a561067d565b5b60006107b489828a0161069e565b965050602087013567ffffffffffffffff8111156107d5576107d4610682565b5b6107e189828a016106c2565b955095505060406107f489828a0161073e565b935050606061080589828a01610774565b925050608061081689828a01610774565b9150509295509295509295565b6000602082840312156108395761083861067d565b5b60006108478482850161069e565b91505092915050565b600073ffffffffffffffffffffffffffffffffffffffff82169050919050565b600061087b82610850565b9050919050565b61088b81610870565b82525050565b60006020820190506108a66000830184610882565b92915050565b6108b581610870565b81146108c057600080fd5b50565b6000813590506108d2816108ac565b92915050565b6000806000606084860312156108f1576108f061067d565b5b60006108ff8682870161069e565b9350506020610910868287016108c3565b925050604061092186828701610774565b9150509250925092565b7f4e487b7100000000000000000000000000000000000000000000000000000000600052603260045260246000fd5b6000602082840312156109705761096f61067d565b5b600061097e848285016108c3565b91505092915050565b7f4e487b7100000000000000000000000000000000000000000000000000000000600052601160045260246000fd5b60006109c182610753565b91506109cc83610753565b9250827fffffffffffffffffffffffffffffffffffffffffffffffffffffffffffffffff03821115610a0157610a00610987565b5b828201905092915050565b7f4e487b7100000000000000000000000000000000000000000000000000000000600052604160045260246000fd5b610a4481610870565b82525050565b610a5381610718565b82525050565b610a6281610753565b82525050565b610a7181610850565b82525050565b61010082016000820151610a8e6000850182610a3b565b506020820151610aa16020850182610a3b565b506040820151610ab46040850182610a4a565b506060820151610ac76060850182610a3b565b506080820151610ada6080850182610a59565b5060a0820151610aed60a0850182610a59565b5060c0820151610b0060c0850182610a59565b5060e0820151610b1360e0850182610a68565b50505050565b600061010082019050610b2f6000830184610a77565b92915050565b600081519050919050565b600082825260208201905092915050565b6000819050602082019050919050565b600081519050919050565b600082825260208201905092915050565b60005b83811015610b9b578082015181840152602081019050610b80565b83811115610baa576000848401525b50505050565b6000601f19601f8301169050919050565b6000610bcc82610b61565b610bd68185610b6c565b9350610be6818560208601610b7d565b610bef81610bb0565b840191505092915050565b6000604083016000830151610c126000860182610a3b565b5060208301518482036020860152610c2a8282610bc1565b9150508091505092915050565b6000610c438383610bfa565b905092915050565b6000602082019050919050565b6000610c6382610b35565b610c6d8185610b40565b935083602082028501610c7f85610b51565b8060005b85811015610cbb5784840389528151610c9c8582610c37565b9450610ca783610c4b565b925060208a01995050600181019050610c83565b50829750879550505050505092915050565b6000604082019050610ce26000830185610653565b8181036020830152610cf48184610c58565b90509392505050565b6000604082019050610d126000830185610653565b610d1f6020830184610882565b9392505050565b600081519050610d35816108ac565b92915050565b600060208284031215610d5157610d5061067d565b5b6000610d5f84828501610d26565b91505092915050565b610d7181610753565b82525050565b6000604082019050610d8c6000830185610882565b610d996020830184610d68565b939250505056fea264697066735822122011f87f6b56813d61e0da8ff6f9a5ca86d7abbf53c7266556e5be72dab7cd20ca64736f6c634300080d0033",
  "linkReferences": {},
  "deployedLinkReferences": {}
}